{
  "contractName": "Taxicoin",
  "abi": [
    {
      "constant": true,
      "inputs": [
        {
          "name": "",
          "type": "address"
        }
      ],
      "name": "drivers",
      "outputs": [
        {
          "name": "addr",
          "type": "address"
        },
        {
          "name": "lat",
          "type": "string"
        },
        {
          "name": "lon",
          "type": "string"
        },
        {
          "name": "pubKey",
          "type": "string"
        },
        {
          "name": "updated",
          "type": "uint256"
        },
        {
          "name": "rider",
          "type": "address"
        },
        {
          "name": "deposit",
          "type": "uint256"
        },
        {
          "name": "rating",
          "type": "uint8"
        },
        {
          "name": "ratingCount",
          "type": "uint256"
        },
        {
          "name": "riderRating",
          "type": "uint8"
        },
        {
          "name": "proposedNewFare",
          "type": "uint256"
        },
        {
          "name": "hasProposedNewFare",
          "type": "bool"
        }
      ],
      "payable": false,
      "stateMutability": "view",
      "type": "function"
    },
    {
      "constant": true,
      "inputs": [],
      "name": "USERTYPE_NONE",
      "outputs": [
        {
          "name": "",
          "type": "uint8"
        }
      ],
      "payable": false,
      "stateMutability": "view",
      "type": "function"
    },
    {
      "constant": true,
      "inputs": [],
      "name": "riderDeposit",
      "outputs": [
        {
          "name": "",
          "type": "uint256"
        }
      ],
      "payable": false,
      "stateMutability": "view",
      "type": "function"
    },
    {
      "constant": true,
      "inputs": [
        {
          "name": "",
          "type": "address"
        }
      ],
      "name": "riders",
      "outputs": [
        {
          "name": "addr",
          "type": "address"
        },
        {
          "name": "pubKey",
          "type": "string"
        },
        {
          "name": "driver",
          "type": "address"
        },
        {
          "name": "fare",
          "type": "uint256"
        },
        {
          "name": "deposit",
          "type": "uint256"
        },
        {
          "name": "rating",
          "type": "uint8"
        },
        {
          "name": "ratingCount",
          "type": "uint256"
        },
        {
          "name": "driverRating",
          "type": "uint8"
        }
      ],
      "payable": false,
      "stateMutability": "view",
      "type": "function"
    },
    {
      "constant": true,
      "inputs": [],
      "name": "driverDeposit",
      "outputs": [
        {
          "name": "",
          "type": "uint256"
        }
      ],
      "payable": false,
      "stateMutability": "view",
      "type": "function"
    },
    {
      "constant": true,
      "inputs": [],
      "name": "USERTYPE_ACTIVEDRIVER",
      "outputs": [
        {
          "name": "",
          "type": "uint8"
        }
      ],
      "payable": false,
      "stateMutability": "view",
      "type": "function"
    },
    {
      "constant": true,
      "inputs": [],
      "name": "USERTYPE_RIDER",
      "outputs": [
        {
          "name": "",
          "type": "uint8"
        }
      ],
      "payable": false,
      "stateMutability": "view",
      "type": "function"
    },
    {
      "constant": true,
      "inputs": [],
      "name": "USERTYPE_DRIVER",
      "outputs": [
        {
          "name": "",
          "type": "uint8"
        }
      ],
      "payable": false,
      "stateMutability": "view",
      "type": "function"
    },
    {
      "constant": true,
      "inputs": [
        {
          "name": "",
          "type": "address"
        },
        {
          "name": "",
          "type": "bool"
        }
      ],
      "name": "dllDriverIndex",
      "outputs": [
        {
          "name": "",
          "type": "address"
        }
      ],
      "payable": false,
      "stateMutability": "view",
      "type": "function"
    },
    {
      "inputs": [],
      "payable": false,
      "stateMutability": "nonpayable",
      "type": "constructor"
    },
    {
      "constant": false,
      "inputs": [
        {
          "name": "lat",
          "type": "string"
        },
        {
          "name": "lon",
          "type": "string"
        },
        {
          "name": "pubKey",
          "type": "string"
        }
      ],
      "name": "driverAdvertise",
      "outputs": [],
      "payable": true,
      "stateMutability": "payable",
      "type": "function"
    },
    {
      "constant": false,
      "inputs": [],
      "name": "driverRevokeAdvert",
      "outputs": [],
      "payable": false,
      "stateMutability": "nonpayable",
      "type": "function"
    },
    {
      "constant": false,
      "inputs": [
        {
          "name": "driver",
          "type": "address"
        },
        {
          "name": "fare",
          "type": "uint256"
        },
        {
          "name": "pubKey",
          "type": "string"
        }
      ],
      "name": "riderCreateJourney",
      "outputs": [],
      "payable": true,
      "stateMutability": "payable",
      "type": "function"
    },
    {
      "constant": false,
      "inputs": [],
      "name": "riderCancelJourney",
      "outputs": [],
      "payable": false,
      "stateMutability": "nonpayable",
      "type": "function"
    },
    {
      "constant": false,
      "inputs": [
        {
          "name": "rider",
          "type": "address"
        },
        {
          "name": "fare",
          "type": "uint256"
        }
      ],
      "name": "driverAcceptJourney",
      "outputs": [],
      "payable": false,
      "stateMutability": "nonpayable",
      "type": "function"
    },
    {
      "constant": false,
      "inputs": [
        {
          "name": "rating",
          "type": "uint8"
        }
      ],
      "name": "completeJourney",
      "outputs": [],
      "payable": false,
      "stateMutability": "nonpayable",
      "type": "function"
    },
    {
      "constant": false,
      "inputs": [
        {
          "name": "newFare",
          "type": "uint256"
        }
      ],
      "name": "driverProposeFareAlteration",
      "outputs": [],
      "payable": false,
      "stateMutability": "nonpayable",
      "type": "function"
    },
    {
      "constant": false,
      "inputs": [
        {
          "name": "newFare",
          "type": "uint256"
        }
      ],
      "name": "riderConfirmFareAlteration",
      "outputs": [],
      "payable": true,
      "stateMutability": "payable",
      "type": "function"
    },
    {
      "constant": true,
      "inputs": [
        {
          "name": "addr",
          "type": "address"
        }
      ],
      "name": "getUserType",
      "outputs": [
        {
          "name": "",
          "type": "uint8"
        }
      ],
      "payable": false,
      "stateMutability": "view",
      "type": "function"
    },
    {
      "constant": true,
      "inputs": [
        {
          "name": "driverAddr",
          "type": "address"
        }
      ],
      "name": "getDriver",
      "outputs": [
        {
          "name": "addr",
          "type": "address"
        },
        {
          "name": "lat",
          "type": "string"
        },
        {
          "name": "lon",
          "type": "string"
        },
        {
          "name": "pubKey",
          "type": "string"
        },
        {
          "name": "updated",
          "type": "uint256"
        },
        {
          "name": "rider",
          "type": "address"
        },
        {
          "name": "deposit",
          "type": "uint256"
        },
        {
          "name": "rating",
          "type": "uint8"
        },
        {
          "name": "ratingCount",
          "type": "uint256"
        },
        {
          "name": "riderRating",
          "type": "uint8"
        },
        {
          "name": "proposedNewFare",
          "type": "uint256"
        },
        {
          "name": "hasProposedNewFare",
          "type": "bool"
        }
      ],
      "payable": false,
      "stateMutability": "view",
      "type": "function"
    },
    {
      "constant": true,
      "inputs": [
        {
          "name": "driverAddr",
          "type": "address"
        }
      ],
      "name": "getNextDriver",
      "outputs": [
        {
          "name": "addr",
          "type": "address"
        },
        {
          "name": "lat",
          "type": "string"
        },
        {
          "name": "lon",
          "type": "string"
        },
        {
          "name": "pubKey",
          "type": "string"
        },
        {
          "name": "updated",
          "type": "uint256"
        },
        {
          "name": "rider",
          "type": "address"
        },
        {
          "name": "deposit",
          "type": "uint256"
        },
        {
          "name": "rating",
          "type": "uint8"
        },
        {
          "name": "ratingCount",
          "type": "uint256"
        },
        {
          "name": "riderRating",
          "type": "uint8"
        },
        {
          "name": "proposedNewFare",
          "type": "uint256"
        },
        {
          "name": "hasProposedNewFare",
          "type": "bool"
        }
      ],
      "payable": false,
      "stateMutability": "view",
      "type": "function"
    },
    {
      "constant": true,
      "inputs": [
        {
          "name": "driverAddr",
          "type": "address"
        }
      ],
      "name": "getPreviousDriver",
      "outputs": [
        {
          "name": "",
          "type": "address"
        },
        {
          "name": "",
          "type": "string"
        },
        {
          "name": "",
          "type": "string"
        },
        {
          "name": "",
          "type": "string"
        },
        {
          "name": "",
          "type": "uint256"
        },
        {
          "name": "",
          "type": "address"
        },
        {
          "name": "",
          "type": "uint256"
        },
        {
          "name": "",
          "type": "uint8"
        },
        {
          "name": "",
          "type": "uint256"
        },
        {
          "name": "",
          "type": "uint8"
        },
        {
          "name": "",
          "type": "uint256"
        },
        {
          "name": "",
          "type": "bool"
        }
      ],
      "payable": false,
      "stateMutability": "view",
      "type": "function"
    },
    {
      "constant": true,
      "inputs": [
        {
          "name": "riderAddr",
          "type": "address"
        }
      ],
      "name": "getRider",
      "outputs": [
        {
          "name": "addr",
          "type": "address"
        },
        {
          "name": "pubKey",
          "type": "string"
        },
        {
          "name": "driver",
          "type": "address"
        },
        {
          "name": "fare",
          "type": "uint256"
        },
        {
          "name": "deposit",
          "type": "uint256"
        },
        {
          "name": "rating",
          "type": "uint8"
        },
        {
          "name": "ratingCount",
          "type": "uint256"
        },
        {
          "name": "driverRating",
          "type": "uint8"
        }
      ],
      "payable": false,
      "stateMutability": "view",
      "type": "function"
    }
  ],
  "bytecode": "0x608060405234801561001057600080fd5b50606460028190555060646003819055506147a4806100306000396000f300608060405260043610610128576000357c0100000000000000000000000000000000000000000000000000000000900463ffffffff16806308197c921461012d578063153b66e2146103685780633366be0b146103ee5780634aa60186146106295780635106fb361461086457806352e1ff521461089157806365c301ab14610979578063851c354d14610bb45780638810bfa714610bcb5780638973568d14610bfc5780638b3f863f14610c1357806394dc8a7114610c705780639973818414610ca05780639daaf3ac14610ccb578063ad4c955814610ceb578063ae6775cb14610e3c578063c0059ce614610f8d578063cf50c23c14610fb8578063dace8f8214611005578063e20ac7aa14611036578063e2e8083714611067578063ee7bde7d14611098575b600080fd5b34801561013957600080fd5b5061016e600480360381019080803573ffffffffffffffffffffffffffffffffffffffff169060200190929190505050611127565b604051808d73ffffffffffffffffffffffffffffffffffffffff1673ffffffffffffffffffffffffffffffffffffffff1681526020018060200180602001806020018c81526020018b73ffffffffffffffffffffffffffffffffffffffff1673ffffffffffffffffffffffffffffffffffffffff1681526020018a81526020018960ff1660ff1681526020018881526020018760ff1660ff1681526020018681526020018515151515815260200184810384528f818151815260200191508051906020019080838360005b83811015610254578082015181840152602081019050610239565b50505050905090810190601f1680156102815780820380516001836020036101000a031916815260200191505b5084810383528e818151815260200191508051906020019080838360005b838110156102ba57808201518184015260208101905061029f565b50505050905090810190601f1680156102e75780820380516001836020036101000a031916815260200191505b5084810382528d818151815260200191508051906020019080838360005b83811015610320578082015181840152602081019050610305565b50505050905090810190601f16801561034d5780820380516001836020036101000a031916815260200191505b509f5050505050505050505050505050505060405180910390f35b6103ec600480360381019080803573ffffffffffffffffffffffffffffffffffffffff16906020019092919080359060200190929190803590602001908201803590602001908080601f01602080910402602001604051908101604052809392919081815260200183838082843782019150505050505091929192905050506111e4565b005b3480156103fa57600080fd5b5061042f600480360381019080803573ffffffffffffffffffffffffffffffffffffffff1690602001909291905050506114a8565b604051808d73ffffffffffffffffffffffffffffffffffffffff1673ffffffffffffffffffffffffffffffffffffffff1681526020018060200180602001806020018c81526020018b73ffffffffffffffffffffffffffffffffffffffff1673ffffffffffffffffffffffffffffffffffffffff1681526020018a81526020018960ff1660ff1681526020018881526020018760ff1660ff1681526020018681526020018515151515815260200184810384528f818151815260200191508051906020019080838360005b838110156105155780820151818401526020810190506104fa565b50505050905090810190601f1680156105425780820380516001836020036101000a031916815260200191505b5084810383528e818151815260200191508051906020019080838360005b8381101561057b578082015181840152602081019050610560565b50505050905090810190601f1680156105a85780820380516001836020036101000a031916815260200191505b5084810382528d818151815260200191508051906020019080838360005b838110156105e15780820151818401526020810190506105c6565b50505050905090810190601f16801561060e5780820380516001836020036101000a031916815260200191505b509f5050505050505050505050505050505060405180910390f35b34801561063557600080fd5b5061066a600480360381019080803573ffffffffffffffffffffffffffffffffffffffff169060200190929190505050611566565b604051808d73ffffffffffffffffffffffffffffffffffffffff1673ffffffffffffffffffffffffffffffffffffffff1681526020018060200180602001806020018c81526020018b73ffffffffffffffffffffffffffffffffffffffff1673ffffffffffffffffffffffffffffffffffffffff1681526020018a81526020018960ff1660ff1681526020018881526020018760ff1660ff1681526020018681526020018515151515815260200184810384528f818151815260200191508051906020019080838360005b83811015610750578082015181840152602081019050610735565b50505050905090810190601f16801561077d5780820380516001836020036101000a031916815260200191505b5084810383528e818151815260200191508051906020019080838360005b838110156107b657808201518184015260208101905061079b565b50505050905090810190601f1680156107e35780820380516001836020036101000a031916815260200191505b5084810382528d818151815260200191508051906020019080838360005b8381101561081c578082015181840152602081019050610801565b50505050905090810190601f1680156108495780820380516001836020036101000a031916815260200191505b509f5050505050505050505050505050505060405180910390f35b34801561087057600080fd5b5061088f600480360381019080803590602001909291905050506117f5565b005b610977600480360381019080803590602001908201803590602001908080601f0160208091040260200160405190810160405280939291908181526020018383808284378201915050505050509192919290803590602001908201803590602001908080601f0160208091040260200160405190810160405280939291908181526020018383808284378201915050505050509192919290803590602001908201803590602001908080601f01602080910402602001604051908101604052809392919081815260200183838082843782019150505050505091929192905050506118b5565b005b34801561098557600080fd5b506109ba600480360381019080803573ffffffffffffffffffffffffffffffffffffffff169060200190929190505050611c46565b604051808d73ffffffffffffffffffffffffffffffffffffffff1673ffffffffffffffffffffffffffffffffffffffff1681526020018060200180602001806020018c81526020018b73ffffffffffffffffffffffffffffffffffffffff1673ffffffffffffffffffffffffffffffffffffffff1681526020018a81526020018960ff1660ff1681526020018881526020018760ff1660ff1681526020018681526020018515151515815260200184810384528f818151815260200191508051906020019080838360005b83811015610aa0578082015181840152602081019050610a85565b50505050905090810190601f168015610acd5780820380516001836020036101000a031916815260200191505b5084810383528e818151815260200191508051906020019080838360005b83811015610b06578082015181840152602081019050610aeb565b50505050905090810190601f168015610b335780820380516001836020036101000a031916815260200191505b5084810382528d818151815260200191508051906020019080838360005b83811015610b6c578082015181840152602081019050610b51565b50505050905090810190601f168015610b995780820380516001836020036101000a031916815260200191505b509f5050505050505050505050505050505060405180910390f35b348015610bc057600080fd5b50610bc961202e565b005b348015610bd757600080fd5b50610be0612472565b604051808260ff1660ff16815260200191505060405180910390f35b348015610c0857600080fd5b50610c11612477565b005b348015610c1f57600080fd5b50610c54600480360381019080803573ffffffffffffffffffffffffffffffffffffffff16906020019092919050505061259e565b604051808260ff1660ff16815260200191505060405180910390f35b348015610c7c57600080fd5b50610c9e600480360381019080803560ff169060200190929190505050612786565b005b348015610cac57600080fd5b50610cb5612ade565b6040518082815260200191505060405180910390f35b610ce960048036038101908080359060200190929190505050612ae4565b005b348015610cf757600080fd5b50610d2c600480360381019080803573ffffffffffffffffffffffffffffffffffffffff169060200190929190505050612fa6565b604051808973ffffffffffffffffffffffffffffffffffffffff1673ffffffffffffffffffffffffffffffffffffffff168152602001806020018873ffffffffffffffffffffffffffffffffffffffff1673ffffffffffffffffffffffffffffffffffffffff1681526020018781526020018681526020018560ff1660ff1681526020018481526020018360ff1660ff168152602001828103825289818151815260200191508051906020019080838360005b83811015610dfa578082015181840152602081019050610ddf565b50505050905090810190601f168015610e275780820380516001836020036101000a031916815260200191505b50995050505050505050505060405180910390f35b348015610e4857600080fd5b50610e7d600480360381019080803573ffffffffffffffffffffffffffffffffffffffff1690602001909291905050506130e0565b604051808973ffffffffffffffffffffffffffffffffffffffff1673ffffffffffffffffffffffffffffffffffffffff168152602001806020018873ffffffffffffffffffffffffffffffffffffffff1673ffffffffffffffffffffffffffffffffffffffff1681526020018781526020018681526020018560ff1660ff1681526020018481526020018360ff1660ff168152602001828103825289818151815260200191508051906020019080838360005b83811015610f4b578082015181840152602081019050610f30565b50505050905090810190601f168015610f785780820380516001836020036101000a031916815260200191505b50995050505050505050505060405180910390f35b348015610f9957600080fd5b50610fa2613330565b6040518082815260200191505060405180910390f35b348015610fc457600080fd5b50611003600480360381019080803573ffffffffffffffffffffffffffffffffffffffff16906020019092919080359060200190929190505050613336565b005b34801561101157600080fd5b5061101a61354a565b604051808260ff1660ff16815260200191505060405180910390f35b34801561104257600080fd5b5061104b61354f565b604051808260ff1660ff16815260200191505060405180910390f35b34801561107357600080fd5b5061107c613554565b604051808260ff1660ff16815260200191505060405180910390f35b3480156110a457600080fd5b506110e5600480360381019080803573ffffffffffffffffffffffffffffffffffffffff169060200190929190803515159060200190929190505050613559565b604051808273ffffffffffffffffffffffffffffffffffffffff1673ffffffffffffffffffffffffffffffffffffffff16815260200191505060405180910390f35b600060608060606000806000806000806000806000600460008f73ffffffffffffffffffffffffffffffffffffffff1673ffffffffffffffffffffffffffffffffffffffff16815260200190815260200160002060008015151515815260200190815260200160002060009054906101000a900473ffffffffffffffffffffffffffffffffffffffff1690506111bc81611c46565b9c509c509c509c509c509c509c509c509c509c509c509c505091939597999b5091939597999b565b816003540134101515156111f757600080fd5b600060ff166112053261259e565b60ff1614151561121457600080fd5b600073ffffffffffffffffffffffffffffffffffffffff168373ffffffffffffffffffffffffffffffffffffffff161415151561125057600080fd5b600160ff1661125e8461259e565b60ff1614151561126d57600080fd5b600354600160003273ffffffffffffffffffffffffffffffffffffffff1673ffffffffffffffffffffffffffffffffffffffff1681526020019081526020016000206004018190555081600160003273ffffffffffffffffffffffffffffffffffffffff1673ffffffffffffffffffffffffffffffffffffffff1681526020019081526020016000206003018190555080600160003273ffffffffffffffffffffffffffffffffffffffff1673ffffffffffffffffffffffffffffffffffffffff16815260200190815260200160002060010190805190602001906113539291906145c5565b5082600160003273ffffffffffffffffffffffffffffffffffffffff1673ffffffffffffffffffffffffffffffffffffffff16815260200190815260200160002060020160006101000a81548173ffffffffffffffffffffffffffffffffffffffff021916908373ffffffffffffffffffffffffffffffffffffffff16021790555032600160003273ffffffffffffffffffffffffffffffffffffffff1673ffffffffffffffffffffffffffffffffffffffff16815260200190815260200160002060000160006101000a81548173ffffffffffffffffffffffffffffffffffffffff021916908373ffffffffffffffffffffffffffffffffffffffff1602179055503273ffffffffffffffffffffffffffffffffffffffff166108fc836003543403039081150290604051600060405180830381858888f193505050501580156114a2573d6000803e3d6000fd5b50505050565b600060608060606000806000806000806000806000600460008f73ffffffffffffffffffffffffffffffffffffffff1673ffffffffffffffffffffffffffffffffffffffff1681526020019081526020016000206000600115151515815260200190815260200160002060009054906101000a900473ffffffffffffffffffffffffffffffffffffffff16905061153e81611c46565b9c509c509c509c509c509c509c509c509c509c509c509c505091939597999b5091939597999b565b60006020528060005260406000206000915090508060000160009054906101000a900473ffffffffffffffffffffffffffffffffffffffff1690806001018054600181600116156101000203166002900480601f0160208091040260200160405190810160405280929190818152602001828054600181600116156101000203166002900480156116385780601f1061160d57610100808354040283529160200191611638565b820191906000526020600020905b81548152906001019060200180831161161b57829003601f168201915b505050505090806002018054600181600116156101000203166002900480601f0160208091040260200160405190810160405280929190818152602001828054600181600116156101000203166002900480156116d65780601f106116ab576101008083540402835291602001916116d6565b820191906000526020600020905b8154815290600101906020018083116116b957829003601f168201915b505050505090806003018054600181600116156101000203166002900480601f0160208091040260200160405190810160405280929190818152602001828054600181600116156101000203166002900480156117745780601f1061174957610100808354040283529160200191611774565b820191906000526020600020905b81548152906001019060200180831161175757829003601f168201915b5050505050908060040154908060050160009054906101000a900473ffffffffffffffffffffffffffffffffffffffff16908060060154908060070160009054906101000a900460ff16908060080154908060090160009054906101000a900460ff169080600a01549080600b0160009054906101000a900460ff1690508c565b600260ff166118033261259e565b60ff1614151561181257600080fd5b806000803273ffffffffffffffffffffffffffffffffffffffff1673ffffffffffffffffffffffffffffffffffffffff168152602001908152602001600020600a018190555060016000803273ffffffffffffffffffffffffffffffffffffffff1673ffffffffffffffffffffffffffffffffffffffff168152602001908152602001600020600b0160006101000a81548160ff02191690831515021790555050565b6002546000803273ffffffffffffffffffffffffffffffffffffffff1673ffffffffffffffffffffffffffffffffffffffff1681526020019081526020016000206006015410158061190957506002543410155b151561191457600080fd5b600260ff166119223261259e565b60ff161415151561193257600080fd5b600360ff166119403261259e565b60ff161415151561195057600080fd5b3273ffffffffffffffffffffffffffffffffffffffff166000803273ffffffffffffffffffffffffffffffffffffffff1673ffffffffffffffffffffffffffffffffffffffff16815260200190815260200160002060000160009054906101000a900473ffffffffffffffffffffffffffffffffffffffff1673ffffffffffffffffffffffffffffffffffffffff161415156119f0576119ef3261359b565b5b326000803273ffffffffffffffffffffffffffffffffffffffff1673ffffffffffffffffffffffffffffffffffffffff16815260200190815260200160002060000160006101000a81548173ffffffffffffffffffffffffffffffffffffffff021916908373ffffffffffffffffffffffffffffffffffffffff160217905550826000803273ffffffffffffffffffffffffffffffffffffffff1673ffffffffffffffffffffffffffffffffffffffff1681526020019081526020016000206001019080519060200190611ac59291906145c5565b50816000803273ffffffffffffffffffffffffffffffffffffffff1673ffffffffffffffffffffffffffffffffffffffff1681526020019081526020016000206002019080519060200190611b1b9291906145c5565b50426000803273ffffffffffffffffffffffffffffffffffffffff1673ffffffffffffffffffffffffffffffffffffffff16815260200190815260200160002060040181905550346000803273ffffffffffffffffffffffffffffffffffffffff1673ffffffffffffffffffffffffffffffffffffffff16815260200190815260200160002060060154016000803273ffffffffffffffffffffffffffffffffffffffff1673ffffffffffffffffffffffffffffffffffffffff16815260200190815260200160002060060181905550806000803273ffffffffffffffffffffffffffffffffffffffff1673ffffffffffffffffffffffffffffffffffffffff1681526020019081526020016000206003019080519060200190611c409291906145c5565b50505050565b60006060806060600080600080600080600080611c61614645565b6000808f73ffffffffffffffffffffffffffffffffffffffff1673ffffffffffffffffffffffffffffffffffffffff16815260200190815260200160002061018060405190810160405290816000820160009054906101000a900473ffffffffffffffffffffffffffffffffffffffff1673ffffffffffffffffffffffffffffffffffffffff1673ffffffffffffffffffffffffffffffffffffffff168152602001600182018054600181600116156101000203166002900480601f016020809104026020016040519081016040528092919081815260200182805460018160011615610100020316600290048015611d9b5780601f10611d7057610100808354040283529160200191611d9b565b820191906000526020600020905b815481529060010190602001808311611d7e57829003601f168201915b50505050508152602001600282018054600181600116156101000203166002900480601f016020809104026020016040519081016040528092919081815260200182805460018160011615610100020316600290048015611e3d5780601f10611e1257610100808354040283529160200191611e3d565b820191906000526020600020905b815481529060010190602001808311611e2057829003601f168201915b50505050508152602001600382018054600181600116156101000203166002900480601f016020809104026020016040519081016040528092919081815260200182805460018160011615610100020316600290048015611edf5780601f10611eb457610100808354040283529160200191611edf565b820191906000526020600020905b815481529060010190602001808311611ec257829003601f168201915b50505050508152602001600482015481526020016005820160009054906101000a900473ffffffffffffffffffffffffffffffffffffffff1673ffffffffffffffffffffffffffffffffffffffff1673ffffffffffffffffffffffffffffffffffffffff168152602001600682015481526020016007820160009054906101000a900460ff1660ff1660ff168152602001600882015481526020016009820160009054906101000a900460ff1660ff1660ff168152602001600a8201548152602001600b820160009054906101000a900460ff1615151515815250509050806000015181602001518260400151836060015184608001518560a001518660c001518760e001518861010001518961012001518a61014001518b61016001518a9a508999508898509c509c509c509c509c509c509c509c509c509c509c509c505091939597999b5091939597999b565b600073ffffffffffffffffffffffffffffffffffffffff16600160003273ffffffffffffffffffffffffffffffffffffffff1673ffffffffffffffffffffffffffffffffffffffff16815260200190815260200160002060000160009054906101000a900473ffffffffffffffffffffffffffffffffffffffff1673ffffffffffffffffffffffffffffffffffffffff16141515156120cc57600080fd5b3273ffffffffffffffffffffffffffffffffffffffff16600080600160003273ffffffffffffffffffffffffffffffffffffffff1673ffffffffffffffffffffffffffffffffffffffff16815260200190815260200160002060020160009054906101000a900473ffffffffffffffffffffffffffffffffffffffff1673ffffffffffffffffffffffffffffffffffffffff1673ffffffffffffffffffffffffffffffffffffffff16815260200190815260200160002060050160009054906101000a900473ffffffffffffffffffffffffffffffffffffffff1673ffffffffffffffffffffffffffffffffffffffff16141515156121ca57600080fd5b3273ffffffffffffffffffffffffffffffffffffffff166108fc600160003273ffffffffffffffffffffffffffffffffffffffff1673ffffffffffffffffffffffffffffffffffffffff168152602001908152602001600020600401549081150290604051600060405180830381858888f19350505050158015612252573d6000803e3d6000fd5b503273ffffffffffffffffffffffffffffffffffffffff166108fc600160003273ffffffffffffffffffffffffffffffffffffffff1673ffffffffffffffffffffffffffffffffffffffff168152602001908152602001600020600301549081150290604051600060405180830381858888f193505050501580156122db573d6000803e3d6000fd5b506000600160003273ffffffffffffffffffffffffffffffffffffffff1673ffffffffffffffffffffffffffffffffffffffff168152602001908152602001600020600401819055506000600160003273ffffffffffffffffffffffffffffffffffffffff1673ffffffffffffffffffffffffffffffffffffffff168152602001908152602001600020600301819055506000600160003273ffffffffffffffffffffffffffffffffffffffff1673ffffffffffffffffffffffffffffffffffffffff16815260200190815260200160002060020160006101000a81548173ffffffffffffffffffffffffffffffffffffffff021916908373ffffffffffffffffffffffffffffffffffffffff1602179055506000600160003273ffffffffffffffffffffffffffffffffffffffff1673ffffffffffffffffffffffffffffffffffffffff16815260200190815260200160002060000160006101000a81548173ffffffffffffffffffffffffffffffffffffffff021916908373ffffffffffffffffffffffffffffffffffffffff160217905550565b600081565b3273ffffffffffffffffffffffffffffffffffffffff166000803273ffffffffffffffffffffffffffffffffffffffff1673ffffffffffffffffffffffffffffffffffffffff16815260200190815260200160002060000160009054906101000a900473ffffffffffffffffffffffffffffffffffffffff1673ffffffffffffffffffffffffffffffffffffffff1614151561251257600080fd5b61251b32613895565b60008060003273ffffffffffffffffffffffffffffffffffffffff1673ffffffffffffffffffffffffffffffffffffffff16815260200190815260200160002060000160006101000a81548173ffffffffffffffffffffffffffffffffffffffff021916908373ffffffffffffffffffffffffffffffffffffffff160217905550565b60008173ffffffffffffffffffffffffffffffffffffffff166000808473ffffffffffffffffffffffffffffffffffffffff1673ffffffffffffffffffffffffffffffffffffffff16815260200190815260200160002060000160009054906101000a900473ffffffffffffffffffffffffffffffffffffffff1673ffffffffffffffffffffffffffffffffffffffff1614156126dd57600073ffffffffffffffffffffffffffffffffffffffff166000808473ffffffffffffffffffffffffffffffffffffffff1673ffffffffffffffffffffffffffffffffffffffff16815260200190815260200160002060050160009054906101000a900473ffffffffffffffffffffffffffffffffffffffff1673ffffffffffffffffffffffffffffffffffffffff1614156126d45760019050612781565b60029050612781565b8173ffffffffffffffffffffffffffffffffffffffff16600160008473ffffffffffffffffffffffffffffffffffffffff1673ffffffffffffffffffffffffffffffffffffffff16815260200190815260200160002060000160009054906101000a900473ffffffffffffffffffffffffffffffffffffffff1673ffffffffffffffffffffffffffffffffffffffff16141561277c5760039050612781565b600090505b919050565b6000808260ff1611151561279957600080fd5b6127a23261259e565b9050600260ff168160ff16141561293b57816000803273ffffffffffffffffffffffffffffffffffffffff1673ffffffffffffffffffffffffffffffffffffffff16815260200190815260200160002060090160006101000a81548160ff021916908360ff1602179055506000600160008060003273ffffffffffffffffffffffffffffffffffffffff1673ffffffffffffffffffffffffffffffffffffffff16815260200190815260200160002060050160009054906101000a900473ffffffffffffffffffffffffffffffffffffffff1673ffffffffffffffffffffffffffffffffffffffff1673ffffffffffffffffffffffffffffffffffffffff16815260200190815260200160002060070160009054906101000a900460ff1660ff16141515612936576129356000803273ffffffffffffffffffffffffffffffffffffffff1673ffffffffffffffffffffffffffffffffffffffff16815260200190815260200160002060050160009054906101000a900473ffffffffffffffffffffffffffffffffffffffff1632613c80565b5b612ada565b600360ff168160ff161415612ad45781600160003273ffffffffffffffffffffffffffffffffffffffff1673ffffffffffffffffffffffffffffffffffffffff16815260200190815260200160002060070160006101000a81548160ff021916908360ff1602179055506000806000600160003273ffffffffffffffffffffffffffffffffffffffff1673ffffffffffffffffffffffffffffffffffffffff16815260200190815260200160002060020160009054906101000a900473ffffffffffffffffffffffffffffffffffffffff1673ffffffffffffffffffffffffffffffffffffffff1673ffffffffffffffffffffffffffffffffffffffff16815260200190815260200160002060090160009054906101000a900460ff1660ff16141515612acf57612ace32600160003273ffffffffffffffffffffffffffffffffffffffff1673ffffffffffffffffffffffffffffffffffffffff16815260200190815260200160002060020160009054906101000a900473ffffffffffffffffffffffffffffffffffffffff16613c80565b5b612ad9565b600080fd5b5b5050565b60035481565b6000600360ff16612af43261259e565b60ff16141515612b0357600080fd5b600080600160003273ffffffffffffffffffffffffffffffffffffffff1673ffffffffffffffffffffffffffffffffffffffff16815260200190815260200160002060020160009054906101000a900473ffffffffffffffffffffffffffffffffffffffff1673ffffffffffffffffffffffffffffffffffffffff1673ffffffffffffffffffffffffffffffffffffffff168152602001908152602001600020600b0160009054906101000a900460ff161515612bbf57600080fd5b81600080600160003273ffffffffffffffffffffffffffffffffffffffff1673ffffffffffffffffffffffffffffffffffffffff16815260200190815260200160002060020160009054906101000a900473ffffffffffffffffffffffffffffffffffffffff1673ffffffffffffffffffffffffffffffffffffffff1673ffffffffffffffffffffffffffffffffffffffff168152602001908152602001600020600a0154141515612c7057600080fd5b600160003273ffffffffffffffffffffffffffffffffffffffff1673ffffffffffffffffffffffffffffffffffffffff16815260200190815260200160002060030154821115612d6757600160003273ffffffffffffffffffffffffffffffffffffffff1673ffffffffffffffffffffffffffffffffffffffff1681526020019081526020016000206003015482039050803410151515612d1057600080fd5b80341115612d62573273ffffffffffffffffffffffffffffffffffffffff166108fc8234039081150290604051600060405180830381858888f19350505050158015612d60573d6000803e3d6000fd5b505b612df6565b81600160003273ffffffffffffffffffffffffffffffffffffffff1673ffffffffffffffffffffffffffffffffffffffff168152602001908152602001600020600301540390503273ffffffffffffffffffffffffffffffffffffffff166108fc829081150290604051600060405180830381858888f19350505050158015612df4573d6000803e3d6000fd5b505b81600160003273ffffffffffffffffffffffffffffffffffffffff1673ffffffffffffffffffffffffffffffffffffffff168152602001908152602001600020600301819055506000806000600160003273ffffffffffffffffffffffffffffffffffffffff1673ffffffffffffffffffffffffffffffffffffffff16815260200190815260200160002060020160009054906101000a900473ffffffffffffffffffffffffffffffffffffffff1673ffffffffffffffffffffffffffffffffffffffff1673ffffffffffffffffffffffffffffffffffffffff168152602001908152602001600020600a01819055506000806000600160003273ffffffffffffffffffffffffffffffffffffffff1673ffffffffffffffffffffffffffffffffffffffff16815260200190815260200160002060020160009054906101000a900473ffffffffffffffffffffffffffffffffffffffff1673ffffffffffffffffffffffffffffffffffffffff1673ffffffffffffffffffffffffffffffffffffffff168152602001908152602001600020600b0160006101000a81548160ff0219169083151502179055505050565b60016020528060005260406000206000915090508060000160009054906101000a900473ffffffffffffffffffffffffffffffffffffffff1690806001018054600181600116156101000203166002900480601f0160208091040260200160405190810160405280929190818152602001828054600181600116156101000203166002900480156130785780601f1061304d57610100808354040283529160200191613078565b820191906000526020600020905b81548152906001019060200180831161305b57829003601f168201915b5050505050908060020160009054906101000a900473ffffffffffffffffffffffffffffffffffffffff16908060030154908060040154908060050160009054906101000a900460ff16908060060154908060070160009054906101000a900460ff16905088565b600060606000806000806000806130f56146db565b600160008b73ffffffffffffffffffffffffffffffffffffffff1673ffffffffffffffffffffffffffffffffffffffff16815260200190815260200160002061010060405190810160405290816000820160009054906101000a900473ffffffffffffffffffffffffffffffffffffffff1673ffffffffffffffffffffffffffffffffffffffff1673ffffffffffffffffffffffffffffffffffffffff168152602001600182018054600181600116156101000203166002900480601f0160208091040260200160405190810160405280929190818152602001828054600181600116156101000203166002900480156132305780601f1061320557610100808354040283529160200191613230565b820191906000526020600020905b81548152906001019060200180831161321357829003601f168201915b505050505081526020016002820160009054906101000a900473ffffffffffffffffffffffffffffffffffffffff1673ffffffffffffffffffffffffffffffffffffffff1673ffffffffffffffffffffffffffffffffffffffff16815260200160038201548152602001600482015481526020016005820160009054906101000a900460ff1660ff1660ff168152602001600682015481526020016007820160009054906101000a900460ff1660ff1660ff16815250509050806000015181602001518260400151836060015184608001518560a001518660c001518760e001518696509850985098509850985098509850985050919395975091939597565b60025481565b3273ffffffffffffffffffffffffffffffffffffffff166000803273ffffffffffffffffffffffffffffffffffffffff1673ffffffffffffffffffffffffffffffffffffffff16815260200190815260200160002060000160009054906101000a900473ffffffffffffffffffffffffffffffffffffffff1673ffffffffffffffffffffffffffffffffffffffff161415156133d157600080fd5b80600160008473ffffffffffffffffffffffffffffffffffffffff1673ffffffffffffffffffffffffffffffffffffffff1681526020019081526020016000206003015414151561342157600080fd5b3273ffffffffffffffffffffffffffffffffffffffff16600160008473ffffffffffffffffffffffffffffffffffffffff1673ffffffffffffffffffffffffffffffffffffffff16815260200190815260200160002060020160009054906101000a900473ffffffffffffffffffffffffffffffffffffffff1673ffffffffffffffffffffffffffffffffffffffff161415156134bd57600080fd5b816000803273ffffffffffffffffffffffffffffffffffffffff1673ffffffffffffffffffffffffffffffffffffffff16815260200190815260200160002060050160006101000a81548173ffffffffffffffffffffffffffffffffffffffff021916908373ffffffffffffffffffffffffffffffffffffffff16021790555061354632613895565b5050565b600281565b600381565b600181565b60046020528160005260406000206020528060005260406000206000915091509054906101000a900473ffffffffffffffffffffffffffffffffffffffff1681565b6000600460008373ffffffffffffffffffffffffffffffffffffffff1673ffffffffffffffffffffffffffffffffffffffff16815260200190815260200160002060008015151515815260200190815260200160002060006101000a81548173ffffffffffffffffffffffffffffffffffffffff021916908373ffffffffffffffffffffffffffffffffffffffff160217905550600460008073ffffffffffffffffffffffffffffffffffffffff1681526020019081526020016000206000600115151515815260200190815260200160002060009054906101000a900473ffffffffffffffffffffffffffffffffffffffff16600460008373ffffffffffffffffffffffffffffffffffffffff1673ffffffffffffffffffffffffffffffffffffffff1681526020019081526020016000206000600115151515815260200190815260200160002060006101000a81548173ffffffffffffffffffffffffffffffffffffffff021916908373ffffffffffffffffffffffffffffffffffffffff1602179055508060046000600460008073ffffffffffffffffffffffffffffffffffffffff1681526020019081526020016000206000600115151515815260200190815260200160002060009054906101000a900473ffffffffffffffffffffffffffffffffffffffff1673ffffffffffffffffffffffffffffffffffffffff1673ffffffffffffffffffffffffffffffffffffffff16815260200190815260200160002060008015151515815260200190815260200160002060006101000a81548173ffffffffffffffffffffffffffffffffffffffff021916908373ffffffffffffffffffffffffffffffffffffffff16021790555080600460008073ffffffffffffffffffffffffffffffffffffffff1681526020019081526020016000206000600115151515815260200190815260200160002060006101000a81548173ffffffffffffffffffffffffffffffffffffffff021916908373ffffffffffffffffffffffffffffffffffffffff16021790555050565b600460008273ffffffffffffffffffffffffffffffffffffffff1673ffffffffffffffffffffffffffffffffffffffff1681526020019081526020016000206000600115151515815260200190815260200160002060009054906101000a900473ffffffffffffffffffffffffffffffffffffffff1660046000600460008573ffffffffffffffffffffffffffffffffffffffff1673ffffffffffffffffffffffffffffffffffffffff16815260200190815260200160002060008015151515815260200190815260200160002060009054906101000a900473ffffffffffffffffffffffffffffffffffffffff1673ffffffffffffffffffffffffffffffffffffffff1673ffffffffffffffffffffffffffffffffffffffff1681526020019081526020016000206000600115151515815260200190815260200160002060006101000a81548173ffffffffffffffffffffffffffffffffffffffff021916908373ffffffffffffffffffffffffffffffffffffffff160217905550600460008273ffffffffffffffffffffffffffffffffffffffff1673ffffffffffffffffffffffffffffffffffffffff16815260200190815260200160002060008015151515815260200190815260200160002060009054906101000a900473ffffffffffffffffffffffffffffffffffffffff1660046000600460008573ffffffffffffffffffffffffffffffffffffffff1673ffffffffffffffffffffffffffffffffffffffff1681526020019081526020016000206000600115151515815260200190815260200160002060009054906101000a900473ffffffffffffffffffffffffffffffffffffffff1673ffffffffffffffffffffffffffffffffffffffff1673ffffffffffffffffffffffffffffffffffffffff16815260200190815260200160002060008015151515815260200190815260200160002060006101000a81548173ffffffffffffffffffffffffffffffffffffffff021916908373ffffffffffffffffffffffffffffffffffffffff160217905550600460008273ffffffffffffffffffffffffffffffffffffffff1673ffffffffffffffffffffffffffffffffffffffff16815260200190815260200160002060008015151515815260200190815260200160002060006101000a81549073ffffffffffffffffffffffffffffffffffffffff0219169055600460008273ffffffffffffffffffffffffffffffffffffffff1673ffffffffffffffffffffffffffffffffffffffff1681526020019081526020016000206000600115151515815260200190815260200160002060006101000a81549073ffffffffffffffffffffffffffffffffffffffff021916905550565b8173ffffffffffffffffffffffffffffffffffffffff166108fc600160008573ffffffffffffffffffffffffffffffffffffffff1673ffffffffffffffffffffffffffffffffffffffff168152602001908152602001600020600401549081150290604051600060405180830381858888f19350505050158015613d08573d6000803e3d6000fd5b506000600160008473ffffffffffffffffffffffffffffffffffffffff1673ffffffffffffffffffffffffffffffffffffffff168152602001908152602001600020600301541115613e66578073ffffffffffffffffffffffffffffffffffffffff166108fc6000808473ffffffffffffffffffffffffffffffffffffffff1673ffffffffffffffffffffffffffffffffffffffff168152602001908152602001600020600601549081150290604051600060405180830381858888f19350505050158015613ddb573d6000803e3d6000fd5b508073ffffffffffffffffffffffffffffffffffffffff166108fc600160008573ffffffffffffffffffffffffffffffffffffffff1673ffffffffffffffffffffffffffffffffffffffff168152602001908152602001600020600301549081150290604051600060405180830381858888f19350505050158015613e64573d6000803e3d6000fd5b505b60016000808373ffffffffffffffffffffffffffffffffffffffff1673ffffffffffffffffffffffffffffffffffffffff1681526020019081526020016000206008015401600160008473ffffffffffffffffffffffffffffffffffffffff1673ffffffffffffffffffffffffffffffffffffffff16815260200190815260200160002060070160009054906101000a900460ff1660ff166000808473ffffffffffffffffffffffffffffffffffffffff1673ffffffffffffffffffffffffffffffffffffffff168152602001908152602001600020600801546000808573ffffffffffffffffffffffffffffffffffffffff1673ffffffffffffffffffffffffffffffffffffffff16815260200190815260200160002060070160009054906101000a900460ff1660ff160201811515613f9d57fe5b046000808373ffffffffffffffffffffffffffffffffffffffff1673ffffffffffffffffffffffffffffffffffffffff16815260200190815260200160002060070160006101000a81548160ff021916908360ff1602179055506000808273ffffffffffffffffffffffffffffffffffffffff1673ffffffffffffffffffffffffffffffffffffffff1681526020019081526020016000206008016000815480929190600101919050555060018060008473ffffffffffffffffffffffffffffffffffffffff1673ffffffffffffffffffffffffffffffffffffffff16815260200190815260200160002060060154016000808373ffffffffffffffffffffffffffffffffffffffff1673ffffffffffffffffffffffffffffffffffffffff16815260200190815260200160002060090160009054906101000a900460ff1660ff16600160008573ffffffffffffffffffffffffffffffffffffffff1673ffffffffffffffffffffffffffffffffffffffff16815260200190815260200160002060060154600160008673ffffffffffffffffffffffffffffffffffffffff1673ffffffffffffffffffffffffffffffffffffffff16815260200190815260200160002060050160009054906101000a900460ff1660ff16020181151561418057fe5b04600160008473ffffffffffffffffffffffffffffffffffffffff1673ffffffffffffffffffffffffffffffffffffffff16815260200190815260200160002060050160006101000a81548160ff021916908360ff160217905550600160008373ffffffffffffffffffffffffffffffffffffffff1673ffffffffffffffffffffffffffffffffffffffff168152602001908152602001600020600601600081548092919060010191905055506000600160008473ffffffffffffffffffffffffffffffffffffffff1673ffffffffffffffffffffffffffffffffffffffff16815260200190815260200160002060000160006101000a81548173ffffffffffffffffffffffffffffffffffffffff021916908373ffffffffffffffffffffffffffffffffffffffff1602179055506000600160008473ffffffffffffffffffffffffffffffffffffffff1673ffffffffffffffffffffffffffffffffffffffff16815260200190815260200160002060020160006101000a81548173ffffffffffffffffffffffffffffffffffffffff021916908373ffffffffffffffffffffffffffffffffffffffff1602179055506000600160008473ffffffffffffffffffffffffffffffffffffffff1673ffffffffffffffffffffffffffffffffffffffff16815260200190815260200160002060070160006101000a81548160ff021916908360ff1602179055506000600160008473ffffffffffffffffffffffffffffffffffffffff1673ffffffffffffffffffffffffffffffffffffffff168152602001908152602001600020600301819055506000600160008473ffffffffffffffffffffffffffffffffffffffff1673ffffffffffffffffffffffffffffffffffffffff1681526020019081526020016000206004018190555060008060008373ffffffffffffffffffffffffffffffffffffffff1673ffffffffffffffffffffffffffffffffffffffff16815260200190815260200160002060000160006101000a81548173ffffffffffffffffffffffffffffffffffffffff021916908373ffffffffffffffffffffffffffffffffffffffff16021790555060008060008373ffffffffffffffffffffffffffffffffffffffff1673ffffffffffffffffffffffffffffffffffffffff16815260200190815260200160002060050160006101000a81548173ffffffffffffffffffffffffffffffffffffffff021916908373ffffffffffffffffffffffffffffffffffffffff16021790555060008060008373ffffffffffffffffffffffffffffffffffffffff1673ffffffffffffffffffffffffffffffffffffffff16815260200190815260200160002060090160006101000a81548160ff021916908360ff16021790555060008060008373ffffffffffffffffffffffffffffffffffffffff1673ffffffffffffffffffffffffffffffffffffffff168152602001908152602001600020600601819055505050565b828054600181600116156101000203166002900490600052602060002090601f016020900481019282601f1061460657805160ff1916838001178555614634565b82800160010185558215614634579182015b82811115614633578251825591602001919060010190614618565b5b5090506146419190614753565b5090565b61018060405190810160405280600073ffffffffffffffffffffffffffffffffffffffff16815260200160608152602001606081526020016060815260200160008152602001600073ffffffffffffffffffffffffffffffffffffffff16815260200160008152602001600060ff16815260200160008152602001600060ff168152602001600081526020016000151581525090565b61010060405190810160405280600073ffffffffffffffffffffffffffffffffffffffff16815260200160608152602001600073ffffffffffffffffffffffffffffffffffffffff1681526020016000815260200160008152602001600060ff16815260200160008152602001600060ff1681525090565b61477591905b80821115614771576000816000905550600101614759565b5090565b905600a165627a7a72305820a0730f43412043ddaf8053c7517564c4730c9b84dcb77467e2f01e77d1a45aab0029",
  "source": "pragma solidity ^0.4.21;\n\nimport \"./ITaxicoin.sol\";\n\ncontract Taxicoin is ITaxicoin {\n\n\tuint8 public constant USERTYPE_NONE = 0;\n\tuint8 public constant USERTYPE_DRIVER = 1;\n\tuint8 public constant USERTYPE_ACTIVEDRIVER = 2;\n\tuint8 public constant USERTYPE_RIDER = 3;\n\n\tstruct Driver {\n\t\taddress addr;\n\t\tstring lat;\n\t\tstring lon;\n\t\tstring pubKey;\n\t\tuint updated;\n\t\taddress rider;\n\t\tuint deposit;\n\t\tuint8 rating;\n\t\tuint ratingCount;\n\t\tuint8 riderRating;\n\t\tuint proposedNewFare;\n\t\tbool hasProposedNewFare;\n\t}\n\n\tstruct Rider {\n\t\taddress addr;\n\t\tstring pubKey;\n\t\taddress driver;\n\t\tuint fare;\n\t\tuint deposit;\n\t\tuint8 rating;\n\t\tuint ratingCount;\n\t\tuint8 driverRating;\n\t}\n\n\tmapping(address => Driver) public drivers;\n\tmapping(address => Rider) public riders;\n\n\t// contract settings\n\tuint public driverDeposit;\n\tuint public riderDeposit;\n\n\tconstructor() public {\n\t\t// in future, these will change dynamically\n\t\tdriverDeposit = 100;\n\t\triderDeposit = 100;\n\t}\n\n\tfunction driverAdvertise(string lat, string lon, string pubKey) public payable {\n\t\t// check the driver has paid deposit\n\t\trequire(drivers[tx.origin].deposit >= driverDeposit || msg.value >= driverDeposit);\n\n\t\t// must not be ActiveDriver or Rider\n\t\trequire(getUserType(tx.origin) != USERTYPE_ACTIVEDRIVER);\n\t\trequire(getUserType(tx.origin) != USERTYPE_RIDER);\n\n\t\t// if new driver, add to index\n\t\tif (drivers[tx.origin].addr != tx.origin) {\n\t\t\tdllAddDriver(tx.origin);\n\t\t}\n\n\t\t// update driver state\n\t\tdrivers[tx.origin].addr = tx.origin;\n\t\tdrivers[tx.origin].lat = lat;\n\t\tdrivers[tx.origin].lon = lon;\n\t\tdrivers[tx.origin].updated = block.timestamp;\n\t\tdrivers[tx.origin].deposit = drivers[tx.origin].deposit + msg.value;\n\t\tdrivers[tx.origin].pubKey = pubKey;\n\t}\n\n\tfunction driverRevokeAdvert() public {\n\t\t// check driver is already advertised\n\t\trequire(drivers[tx.origin].addr == tx.origin);\n\n\t\t// remove driver from index and mapping\n\t\tdllRemoveDriver(tx.origin);\n\n\t\tdrivers[tx.origin].addr = address(0);\n\t}\n\n\tfunction riderCreateJourney(address driver, uint fare, string pubKey) public payable {\n\t\t// check the deposit + fare have been paid\n\t\trequire(msg.value >= riderDeposit + fare);\n\n\t\t// check user is not already a rider or driver\n\t\trequire(getUserType(tx.origin) == USERTYPE_NONE);\n\n\t\t// check driver is not the zero address\n\t\trequire(driver != address(0));\n\n\t\t// check the driver is advertised\n\t\trequire(getUserType(driver) == USERTYPE_DRIVER);\n\n\t\t// set the rider's deposit, fare and pubKey\n\t\triders[tx.origin].deposit = riderDeposit;\n\t\triders[tx.origin].fare = fare;\n\t\triders[tx.origin].pubKey = pubKey;\n\n\t\t// set the rider's current driver\n\t\triders[tx.origin].driver = driver;\n\n\t\t// set the rider's address\n\t\triders[tx.origin].addr = tx.origin;\n\n\t\t// send back any excess value\n\t\ttx.origin.transfer(msg.value - riderDeposit - fare);\n\t}\n\n\tfunction riderCancelJourney() public {\n\t\t// rider must have created a journey\n\t\trequire(riders[tx.origin].addr != address(0));\n\n\t\t// driver must not have accepted\n\t\trequire(drivers[riders[tx.origin].driver].rider != tx.origin);\n\n\t\t// send back deposit and fare\n\t\ttx.origin.transfer(riders[tx.origin].deposit);\n\t\ttx.origin.transfer(riders[tx.origin].fare);\n\n\t\t// reset rider state\n\t\triders[tx.origin].deposit = 0;\n\t\triders[tx.origin].fare = 0;\n\t\triders[tx.origin].driver = address(0);\n\t\triders[tx.origin].addr = address(0);\n\t}\n\n\tfunction driverAcceptJourney(address rider, uint fare) public {\n\t\t// check the driver is advertised\n\t\trequire(drivers[tx.origin].addr == tx.origin);\n\n\t\t// check declared fare is the same as rider's provided\n\t\trequire(riders[rider].fare == fare);\n\n\t\t// check the rider has agreed to ride with this driver\n\t\trequire(riders[rider].driver == tx.origin);\n\n\t\t// set the driver's rider\n\t\tdrivers[tx.origin].rider = rider;\n\n\t\t// remove from DLL\n\t\tdllRemoveDriver(tx.origin);\n\t}\n\n\tfunction completeJourney(uint8 rating) public {\n\t\trequire(rating > 0);\n\n\t\tuint8 userType = getUserType(tx.origin);\n\n\t\tif (userType == USERTYPE_ACTIVEDRIVER) {\n\n\t\t\t// set rating to give to rider\n\t\t\tdrivers[tx.origin].riderRating = rating;\n\n\t\t\t// if rider has rated us, apply everything\n\t\t\tif (riders[drivers[tx.origin].rider].driverRating != 0) {\n\t\t\t\tfinaliseCompleteJourney(drivers[tx.origin].rider, tx.origin);\n\t\t\t}\n\n\t\t} else if(userType == USERTYPE_RIDER) {\n\n\t\t\t// set rating to give to driver\n\t\t\triders[tx.origin].driverRating = rating;\n\n\t\t\t// if driver has rated us, apply everything\n\t\t\tif (drivers[riders[tx.origin].driver].riderRating != 0) {\n\t\t\t\tfinaliseCompleteJourney(tx.origin, riders[tx.origin].driver);\n\t\t\t}\n\n\t\t} else {\n\t\t\trevert();\n\t\t}\n\t}\n\n\tfunction finaliseCompleteJourney(address riderAddr, address driverAddr) internal {\n\t\t// send rider deposit back\n\t\triderAddr.transfer(riders[riderAddr].deposit);\n\n\t\t// if fare was non-zero, pay to driver and return driver deposit\n\t\tif (riders[riderAddr].fare > 0) {\n\t\t\tdriverAddr.transfer(drivers[driverAddr].deposit);\n\t\t\tdriverAddr.transfer(riders[riderAddr].fare);\n\t\t}\n\n\t\t// update driver rating\n\t\tdrivers[driverAddr].rating = uint8((drivers[driverAddr].rating * drivers[driverAddr].ratingCount + riders[riderAddr].driverRating) / (drivers[driverAddr].ratingCount + 1));\n\t\tdrivers[driverAddr].ratingCount++;\n\n\t\t// update rider rating\n\t\triders[riderAddr].rating = uint8((riders[riderAddr].rating * riders[riderAddr].ratingCount + drivers[driverAddr].riderRating) / (riders[riderAddr].ratingCount + 1));\n\t\triders[riderAddr].ratingCount++;\n\n\t\t// reset rider and driver state\n\t\triders[riderAddr].addr = address(0);\n\t\triders[riderAddr].driver = address(0);\n\t\triders[riderAddr].driverRating = 0;\n\t\triders[riderAddr].fare = 0;\n\t\triders[riderAddr].deposit = 0;\n\t\tdrivers[driverAddr].addr = address(0);\n\t\tdrivers[driverAddr].rider = address(0);\n\t\tdrivers[driverAddr].riderRating = 0;\n\t\tdrivers[driverAddr].deposit = 0;\n\t}\n\n\tfunction driverProposeFareAlteration(uint newFare) public {\n\t\t// user must be active driver\n\t\trequire(getUserType(tx.origin) == USERTYPE_ACTIVEDRIVER);\n\n\t\t// set the proposed new fare for driver\n\t\tdrivers[tx.origin].proposedNewFare = newFare;\n\t\tdrivers[tx.origin].hasProposedNewFare = true;\n\t}\n\n\tfunction riderConfirmFareAlteration(uint newFare) public payable {\n\t\t// user must be rider\n\t\trequire(getUserType(tx.origin) == USERTYPE_RIDER);\n\n\t\t// driver must have already agreed to the same new fare\n\t\trequire(drivers[riders[tx.origin].driver].hasProposedNewFare);\n\t\trequire(drivers[riders[tx.origin].driver].proposedNewFare == newFare);\n\n\t\tuint fareDifference;\n\n\t\tif (newFare > riders[tx.origin].fare) {\n\t\t\tfareDifference = newFare - riders[tx.origin].fare;\n\n\t\t\trequire(msg.value >= fareDifference);\n\n\t\t\tif (msg.value > fareDifference) {\n\t\t\t\ttx.origin.transfer(msg.value - fareDifference);\n\t\t\t}\n\t\t} else {\n\t\t\tfareDifference = riders[tx.origin].fare - newFare;\n\t\t\ttx.origin.transfer(fareDifference);\n\t\t}\n\n\t\t// set the new fare for the rider\n\t\triders[tx.origin].fare = newFare;\n\n\t\t// reset the fare proposal for driver\n\t\tdrivers[riders[tx.origin].driver].proposedNewFare = 0;\n\t\tdrivers[riders[tx.origin].driver].hasProposedNewFare = false;\n\t}\n\n\t//------------------//\n\t// Helper functions //\n\t//------------------//\n\n\tfunction getUserType(address addr) public view returns (uint8) {\n\t\tif (drivers[addr].addr == addr) {\n\t\t\tif (drivers[addr].rider == address(0)) {\n\t\t\t\treturn USERTYPE_DRIVER;\n\t\t\t} else {\n\t\t\t\treturn USERTYPE_ACTIVEDRIVER;\n\t\t\t}\n\t\t} else if (riders[addr].addr == addr) {\n\t\t\treturn USERTYPE_RIDER;\n\t\t} else {\n\t\t\treturn USERTYPE_NONE;\n\t\t}\n\t}\n\n\tfunction getDriver(address driverAddr) public view returns (address addr, string lat, string lon, string pubKey, uint updated, address rider, uint deposit, uint8 rating, uint ratingCount, uint8 riderRating, uint proposedNewFare, bool hasProposedNewFare) {\n\t\tDriver memory dr = drivers[driverAddr];\n\t\treturn(dr.addr, dr.lat, dr.lon, dr.pubKey, dr.updated, dr.rider, dr.deposit, dr.rating, dr.ratingCount, dr.riderRating, dr.proposedNewFare, dr.hasProposedNewFare);\n\t}\n\n\tfunction getNextDriver(address driverAddr) public view returns (address addr, string lat, string lon, string pubKey, uint updated, address rider, uint deposit, uint8 rating, uint ratingCount, uint8 riderRating, uint proposedNewFare, bool hasProposedNewFare) {\n\t\taddress nextDriver = dllDriverIndex[driverAddr][NEXT];\n\t\treturn getDriver(nextDriver);\n\t}\n\n\tfunction getPreviousDriver(address driverAddr) public view returns (address, string, string, string, uint, address, uint, uint8, uint, uint8, uint, bool) {\n\t\taddress prevDriver = dllDriverIndex[driverAddr][PREV];\n\t\treturn getDriver(prevDriver);\n\t}\n\n\tfunction getRider(address riderAddr) public view returns (address addr, string pubKey, address driver, uint fare, uint deposit,\tuint8 rating,\tuint ratingCount,\tuint8 driverRating) {\n\t\tRider memory rd = riders[riderAddr];\n\t\treturn(rd.addr, rd.pubKey, rd.driver, rd.fare, rd.deposit,\trd.rating,\trd.ratingCount, rd.driverRating);\n\t}\n\n\t//---------------------------------------------------------//\n\t// Double Linked List     \t\t\t\t\t\t\t\t\t\t\t\t\t\t\t\t //\n\t// Adapted from https://ethereum.stackexchange.com/a/15341 //\n\t//---------------------------------------------------------//\n\n\tmapping(address => mapping(bool => address)) public dllDriverIndex;\n\n\tbool constant PREV = false;\n\tbool constant NEXT = true;\n\n\tfunction dllAddDriver(address addr) internal {\n\t\t// link the new node\n\t\tdllDriverIndex[addr][PREV] = 0x0;\n\t\tdllDriverIndex[addr][NEXT] = dllDriverIndex[0x0][NEXT];\n\n\t\t// insert the new node\n\t\tdllDriverIndex[dllDriverIndex[0x0][NEXT]][PREV] = addr;\n\t\tdllDriverIndex[0x0][NEXT] = addr;\n\t}\n\n\tfunction dllRemoveDriver(address addr) internal {\n\t\t// stitch the neighbours together\n\t\tdllDriverIndex[dllDriverIndex[addr][PREV]][NEXT] = dllDriverIndex[addr][NEXT];\n\t\tdllDriverIndex[dllDriverIndex[addr][NEXT]][PREV] = dllDriverIndex[addr][PREV];\n\n\t\t// delete state storage\n\t\tdelete dllDriverIndex[addr][PREV];\n\t\tdelete dllDriverIndex[addr][NEXT];\n\t}\n\n}\n",
  "sourcePath": "/Users/sprusr/Code/taxicoin/contracts/Taxicoin.sol",
  "compiler": {
    "name": "solc",
    "version": "0.4.23+commit.124ca40d.Emscripten.clang"
  },
  "schemaVersion": "2.0.0",
  "updatedAt": "2018-04-28T10:10:49.824Z"
}