{
  "contractName": "Taxicoin",
  "abi": [
    {
      "constant": false,
      "inputs": [
        {
          "name": "journeyId",
          "type": "uint256"
        },
        {
          "name": "rating",
          "type": "uint8"
        }
      ],
      "name": "rateDriver",
      "outputs": [
        {
          "name": "success",
          "type": "bool"
        }
      ],
      "payable": false,
      "stateMutability": "nonpayable",
      "type": "function"
    },
    {
      "constant": false,
      "inputs": [
        {
          "name": "lat",
          "type": "int256"
        },
        {
          "name": "lon",
          "type": "int256"
        }
      ],
      "name": "advertiseDriver",
      "outputs": [
        {
          "name": "",
          "type": "bool"
        }
      ],
      "payable": false,
      "stateMutability": "nonpayable",
      "type": "function"
    },
    {
      "constant": false,
      "inputs": [],
      "name": "revokeDriverAdvert",
      "outputs": [
        {
          "name": "",
          "type": "bool"
        }
      ],
      "payable": false,
      "stateMutability": "nonpayable",
      "type": "function"
    },
    {
      "inputs": [],
      "payable": false,
      "stateMutability": "nonpayable",
      "type": "constructor"
    },
    {
      "anonymous": false,
      "inputs": [
        {
          "indexed": true,
          "name": "_driver",
          "type": "address"
        },
        {
          "indexed": false,
          "name": "_rating",
          "type": "uint8"
        }
      ],
      "name": "DriverRating",
      "type": "event"
    }
  ],
  "bytecode": "0x6060604052341561000f57600080fd5b6101618061001e6000396000f300606060405260043610610057576000357c0100000000000000000000000000000000000000000000000000000000900463ffffffff16806301c678c21461005c5780638fbee1ab146100a3578063defa9d19146100e7575b600080fd5b341561006757600080fd5b610089600480803590602001909190803560ff16906020019091905050610114565b604051808215151515815260200191505060405180910390f35b34156100ae57600080fd5b6100cd6004808035906020019091908035906020019091905050610120565b604051808215151515815260200191505060405180910390f35b34156100f257600080fd5b6100fa61012c565b604051808215151515815260200191505060405180910390f35b60006001905092915050565b60006001905092915050565b600060019050905600a165627a7a72305820b117b79a3ad74622038f080055574ac60d62bf802c003d4a36ac0df668858bf40029",
  "source": "pragma solidity ^0.4.4;\n\ncontract Taxicoin {\n\tevent DriverRating(address indexed _driver, uint8 _rating);\n\n\tstruct Journey {\n\t\tDriver driver;\n\t\tRider rider;\n\t\tuint startTime;\n\t\tuint endTime;\n\t}\n\n\tstruct Location {\n\t\t// multiply lat/lon by 1000000 and truncate to get int\n\t\tint lat;\n\t\tint lon;\n\t}\n\n\tstruct Driver {\n\t\taddress driverAddress;\n\t\tLocation location;\n\t\tuint lastLocation; // time at which location was last published\n\t}\n\n\tstruct Rider {\n\t\taddress riderAddress;\n\t\tstring name;\n\t}\n\n\tmapping(address => Driver) private drivers;\n\n\tfunction Taxicoin() public {\n\t\t//\n\t}\n\n\tfunction rateDriver(uint journeyId, uint8 rating) public returns(bool success) {\n\t\t// if not a passenger with them, return false\n\t\t// if already rated, return false\n\n\t\t//DriverRating(journey.driver.driverAddress, rating);\n\n\t\treturn true;\n\t}\n\n\tfunction advertiseDriver(int lat, int lon) public returns(bool) {\n\t\t// if deposit not provided, revert and return false\n\t\t// if new driver, add to drivers list\n\t\t// set driver location and return true\n\n\t\treturn true;\n\t}\n\n\tfunction revokeDriverAdvert() public returns(bool) {\n\t\t// if not valid driver or not advertised, revert and return false\n\t\t// set driver location to invalid and return true\n\n\t\treturn true;\n\t}\n}\n",
  "sourcePath": "/Users/sprusr/Code/taxicoin/contracts/Taxicoin.sol",
  "compiler": {
    "name": "solc",
    "version": "0.4.18+commit.9cf6e910.Emscripten.clang"
  },
  "schemaVersion": "1.0.1",
  "updatedAt": "2017-11-17T14:52:23.479Z"
}